{
  "address": "0x84619eab2e76035cae02d3aD21A5780E60653324",
  "abi": [
    {
      "inputs": [
        {
          "internalType": "address",
          "name": "_implContract",
          "type": "address"
        }
      ],
      "stateMutability": "nonpayable",
      "type": "constructor"
    },
    {
      "inputs": [],
      "name": "admin",
      "outputs": [
        {
          "internalType": "address",
          "name": "",
          "type": "address"
        }
      ],
      "stateMutability": "view",
      "type": "function"
    },
    {
      "inputs": [],
      "name": "implContract",
      "outputs": [
        {
          "internalType": "address",
          "name": "",
          "type": "address"
        }
      ],
      "stateMutability": "view",
      "type": "function"
    },
    {
      "inputs": [],
      "name": "name",
      "outputs": [
        {
          "internalType": "string",
          "name": "",
          "type": "string"
        }
      ],
      "stateMutability": "view",
      "type": "function"
    },
    {
      "inputs": [
        {
          "internalType": "uint256",
          "name": "_value",
          "type": "uint256"
        }
      ],
      "name": "setBalance",
      "outputs": [],
      "stateMutability": "nonpayable",
      "type": "function"
    },
    {
      "inputs": [],
      "name": "symbol",
      "outputs": [
        {
          "internalType": "string",
          "name": "",
          "type": "string"
        }
      ],
      "stateMutability": "view",
      "type": "function"
    },
    {
      "inputs": [
        {
          "internalType": "address",
          "name": "_newImpl",
          "type": "address"
        }
      ],
      "name": "upgradeContract",
      "outputs": [],
      "stateMutability": "nonpayable",
      "type": "function"
    },
    {
      "inputs": [
        {
          "internalType": "address",
          "name": "",
          "type": "address"
        }
      ],
      "name": "usersBalance",
      "outputs": [
        {
          "internalType": "uint256",
          "name": "",
          "type": "uint256"
        }
      ],
      "stateMutability": "view",
      "type": "function"
    }
  ],
  "transactionHash": "0xb03efc20e261f0a7ac71bfe1936fee1736eb5f76fb3b0c4e5af717115dbb96d3",
  "args": [
    "0x08f6A18A817bc3ba05185C7373be83826F103837"
  ],
  "numDeployments": 2,
  "solcInputHash": "676f78ab925f8a53406fbbd75adde43d",
  "bytecode": "0x608060405234801561001057600080fd5b50604051610af2380380610af28339818101604052810190610032919061018b565b600073ffffffffffffffffffffffffffffffffffffffff168173ffffffffffffffffffffffffffffffffffffffff16036100a1576040517f08c379a000000000000000000000000000000000000000000000000000000000815260040161009890610215565b60405180910390fd5b336000806101000a81548173ffffffffffffffffffffffffffffffffffffffff021916908373ffffffffffffffffffffffffffffffffffffffff16021790555080600260006101000a81548173ffffffffffffffffffffffffffffffffffffffff021916908373ffffffffffffffffffffffffffffffffffffffff16021790555050610235565b600080fd5b600073ffffffffffffffffffffffffffffffffffffffff82169050919050565b60006101588261012d565b9050919050565b6101688161014d565b811461017357600080fd5b50565b6000815190506101858161015f565b92915050565b6000602082840312156101a1576101a0610128565b5b60006101af84828501610176565b91505092915050565b600082825260208201905092915050565b7f494e56414c494420494d504c454d454e544154494f4e20414444524553530000600082015250565b60006101ff601e836101b8565b915061020a826101c9565b602082019050919050565b6000602082019050818103600083015261022e816101f2565b9050919050565b6108ae806102446000396000f3fe608060405234801561001057600080fd5b506004361061007d5760003560e01c806395d89b411161005b57806395d89b41146100ee578063eb2c02231461010c578063f851a44014610128578063fb1669ca146101465761007d565b806306fdde031461008257806358324335146100a057806368d415cb146100d0575b600080fd5b61008a610162565b604051610097919061056d565b60405180910390f35b6100ba60048036038101906100b591906105f2565b61019f565b6040516100c79190610638565b60405180910390f35b6100d86101b7565b6040516100e59190610662565b60405180910390f35b6100f66101dd565b604051610103919061056d565b60405180910390f35b610126600480360381019061012191906105f2565b61021a565b005b61013061035b565b60405161013d9190610662565b60405180910390f35b610160600480360381019061015b91906106a9565b61037f565b005b60606040518060400160405280600d81526020017f70726f7879436f6e747261637400000000000000000000000000000000000000815250905090565b60016020528060005260406000206000915090505481565b600260009054906101000a900473ffffffffffffffffffffffffffffffffffffffff1681565b60606040518060400160405280600281526020017f5043000000000000000000000000000000000000000000000000000000000000815250905090565b60008054906101000a900473ffffffffffffffffffffffffffffffffffffffff1673ffffffffffffffffffffffffffffffffffffffff163373ffffffffffffffffffffffffffffffffffffffff16146102a8576040517f08c379a000000000000000000000000000000000000000000000000000000000815260040161029f90610722565b60405180910390fd5b600073ffffffffffffffffffffffffffffffffffffffff168173ffffffffffffffffffffffffffffffffffffffff1603610317576040517f08c379a000000000000000000000000000000000000000000000000000000000815260040161030e9061078e565b60405180910390fd5b80600260006101000a81548173ffffffffffffffffffffffffffffffffffffffff021916908373ffffffffffffffffffffffffffffffffffffffff16021790555050565b60008054906101000a900473ffffffffffffffffffffffffffffffffffffffff1681565b6000600260009054906101000a900473ffffffffffffffffffffffffffffffffffffffff1673ffffffffffffffffffffffffffffffffffffffff16826040516024016103cb9190610638565b6040516020818303038152906040527ffb1669ca000000000000000000000000000000000000000000000000000000007bffffffffffffffffffffffffffffffffffffffffffffffffffffffff19166020820180517bffffffffffffffffffffffffffffffffffffffffffffffffffffffff838183161783525050505060405161045591906107f5565b600060405180830381855af49150503d8060008114610490576040519150601f19603f3d011682016040523d82523d6000602084013e610495565b606091505b50509050806104d9576040517f08c379a00000000000000000000000000000000000000000000000000000000081526004016104d090610858565b60405180910390fd5b5050565b600081519050919050565b600082825260208201905092915050565b60005b838110156105175780820151818401526020810190506104fc565b60008484015250505050565b6000601f19601f8301169050919050565b600061053f826104dd565b61054981856104e8565b93506105598185602086016104f9565b61056281610523565b840191505092915050565b600060208201905081810360008301526105878184610534565b905092915050565b600080fd5b600073ffffffffffffffffffffffffffffffffffffffff82169050919050565b60006105bf82610594565b9050919050565b6105cf816105b4565b81146105da57600080fd5b50565b6000813590506105ec816105c6565b92915050565b6000602082840312156106085761060761058f565b5b6000610616848285016105dd565b91505092915050565b6000819050919050565b6106328161061f565b82525050565b600060208201905061064d6000830184610629565b92915050565b61065c816105b4565b82525050565b60006020820190506106776000830184610653565b92915050565b6106868161061f565b811461069157600080fd5b50565b6000813590506106a38161067d565b92915050565b6000602082840312156106bf576106be61058f565b5b60006106cd84828501610694565b91505092915050565b7f4e4f54204120564149442043414c4c4552000000000000000000000000000000600082015250565b600061070c6011836104e8565b9150610717826106d6565b602082019050919050565b6000602082019050818103600083015261073b816106ff565b9050919050565b7f494e56414c494420414444524553530000000000000000000000000000000000600082015250565b6000610778600f836104e8565b915061078382610742565b602082019050919050565b600060208201905081810360008301526107a78161076b565b9050919050565b600081519050919050565b600081905092915050565b60006107cf826107ae565b6107d981856107b9565b93506107e98185602086016104f9565b80840191505092915050565b600061080182846107c4565b915081905092915050565b7f46554e4354494f4e2043414c4c204641494c4544000000000000000000000000600082015250565b60006108426014836104e8565b915061084d8261080c565b602082019050919050565b6000602082019050818103600083015261087181610835565b905091905056fea2646970667358221220412f105cbd13d83004b9ab16186eea1af3350a80e4b0b7b320d9353bc12f17a664736f6c63430008130033",
  "devdoc": {
    "kind": "dev",
    "methods": {},
    "version": 1
  },
  "userdoc": {
    "kind": "user",
    "methods": {},
    "version": 1
  },
  "storageLayout": {
    "storage": [
      {
        "astId": 56,
        "contract": "contracts/upgradableSmartContract.sol:proxyContract",
        "label": "admin",
        "offset": 0,
        "slot": "0",
        "type": "t_address"
      },
      {
        "astId": 60,
        "contract": "contracts/upgradableSmartContract.sol:proxyContract",
        "label": "usersBalance",
        "offset": 0,
        "slot": "1",
        "type": "t_mapping(t_address,t_uint256)"
      },
      {
        "astId": 62,
        "contract": "contracts/upgradableSmartContract.sol:proxyContract",
        "label": "implContract",
        "offset": 0,
        "slot": "2",
        "type": "t_address"
      }
    ],
    "types": {
      "t_address": {
        "encoding": "inplace",
        "label": "address",
        "numberOfBytes": "20"
      },
      "t_mapping(t_address,t_uint256)": {
        "encoding": "mapping",
        "key": "t_address",
        "label": "mapping(address => uint256)",
        "numberOfBytes": "32",
        "value": "t_uint256"
      },
      "t_uint256": {
        "encoding": "inplace",
        "label": "uint256",
        "numberOfBytes": "32"
      }
    }
  }
}