{
  "address": "0x20f520E4a14C982AeCA58aE7ec0dEac79D155D14",
  "abi": [
    {
      "inputs": [],
      "stateMutability": "nonpayable",
      "type": "constructor"
    },
    {
      "inputs": [],
      "name": "admin",
      "outputs": [
        {
          "internalType": "address",
          "name": "",
          "type": "address"
        }
      ],
      "stateMutability": "view",
      "type": "function"
    },
    {
      "inputs": [],
      "name": "name",
      "outputs": [
        {
          "internalType": "string",
          "name": "",
          "type": "string"
        }
      ],
      "stateMutability": "view",
      "type": "function"
    },
    {
      "inputs": [
        {
          "internalType": "uint256",
          "name": "_value",
          "type": "uint256"
        }
      ],
      "name": "setBalance",
      "outputs": [],
      "stateMutability": "nonpayable",
      "type": "function"
    },
    {
      "inputs": [],
      "name": "symbol",
      "outputs": [
        {
          "internalType": "string",
          "name": "",
          "type": "string"
        }
      ],
      "stateMutability": "view",
      "type": "function"
    },
    {
      "inputs": [
        {
          "internalType": "address",
          "name": "",
          "type": "address"
        }
      ],
      "name": "usersBalance",
      "outputs": [
        {
          "internalType": "uint256",
          "name": "",
          "type": "uint256"
        }
      ],
      "stateMutability": "view",
      "type": "function"
    }
  ],
  "transactionHash": "0x05a36baf9c9ded51962c3052adac2257659654d624d0d58205d8a8ed57fe0216",
  "args": [],
  "numDeployments": 2,
  "solcInputHash": "676f78ab925f8a53406fbbd75adde43d",
  "bytecode": "0x608060405234801561001057600080fd5b50336000806101000a81548173ffffffffffffffffffffffffffffffffffffffff021916908373ffffffffffffffffffffffffffffffffffffffff160217905550610619806100606000396000f3fe608060405234801561001057600080fd5b50600436106100575760003560e01c806306fdde031461005c578063583243351461007a57806395d89b41146100aa578063f851a440146100c8578063fb1669ca146100e6575b600080fd5b610064610102565b6040516100719190610341565b60405180910390f35b610094600480360381019061008f91906103c6565b61013f565b6040516100a1919061040c565b60405180910390f35b6100b2610157565b6040516100bf9190610341565b60405180910390f35b6100d0610194565b6040516100dd9190610436565b60405180910390f35b61010060048036038101906100fb919061047d565b6101b8565b005b60606040518060400160405280602081526020017f75706772616465645f696d706c656d656e746174696f6e5f636f6e7472616374815250905090565b60016020528060005260406000206000915090505481565b60606040518060400160405280600581526020017f75496d706c000000000000000000000000000000000000000000000000000000815250905090565b60008054906101000a900473ffffffffffffffffffffffffffffffffffffffff1681565b60006064605a836101c991906104d9565b6101d3919061054a565b905080600160003373ffffffffffffffffffffffffffffffffffffffff1673ffffffffffffffffffffffffffffffffffffffff1681526020019081526020016000206000828254610224919061057b565b92505081905550808261023791906105af565b600160008060009054906101000a900473ffffffffffffffffffffffffffffffffffffffff1673ffffffffffffffffffffffffffffffffffffffff1673ffffffffffffffffffffffffffffffffffffffff16815260200190815260200160002060008282546102a6919061057b565b925050819055505050565b600081519050919050565b600082825260208201905092915050565b60005b838110156102eb5780820151818401526020810190506102d0565b60008484015250505050565b6000601f19601f8301169050919050565b6000610313826102b1565b61031d81856102bc565b935061032d8185602086016102cd565b610336816102f7565b840191505092915050565b6000602082019050818103600083015261035b8184610308565b905092915050565b600080fd5b600073ffffffffffffffffffffffffffffffffffffffff82169050919050565b600061039382610368565b9050919050565b6103a381610388565b81146103ae57600080fd5b50565b6000813590506103c08161039a565b92915050565b6000602082840312156103dc576103db610363565b5b60006103ea848285016103b1565b91505092915050565b6000819050919050565b610406816103f3565b82525050565b600060208201905061042160008301846103fd565b92915050565b61043081610388565b82525050565b600060208201905061044b6000830184610427565b92915050565b61045a816103f3565b811461046557600080fd5b50565b60008135905061047781610451565b92915050565b60006020828403121561049357610492610363565b5b60006104a184828501610468565b91505092915050565b7f4e487b7100000000000000000000000000000000000000000000000000000000600052601160045260246000fd5b60006104e4826103f3565b91506104ef836103f3565b92508282026104fd816103f3565b91508282048414831517610514576105136104aa565b5b5092915050565b7f4e487b7100000000000000000000000000000000000000000000000000000000600052601260045260246000fd5b6000610555826103f3565b9150610560836103f3565b9250826105705761056f61051b565b5b828204905092915050565b6000610586826103f3565b9150610591836103f3565b92508282019050808211156105a9576105a86104aa565b5b92915050565b60006105ba826103f3565b91506105c5836103f3565b92508282039050818111156105dd576105dc6104aa565b5b9291505056fea2646970667358221220a519593c01b6815456b091209b3358e5d2187d6e6470adfd257bc243832d670a64736f6c63430008130033",
  "devdoc": {
    "kind": "dev",
    "methods": {},
    "version": 1
  },
  "userdoc": {
    "kind": "user",
    "methods": {},
    "version": 1
  },
  "storageLayout": {
    "storage": [
      {
        "astId": 162,
        "contract": "contracts/upgradableSmartContract.sol:upgraded_implementation_contract",
        "label": "admin",
        "offset": 0,
        "slot": "0",
        "type": "t_address"
      },
      {
        "astId": 166,
        "contract": "contracts/upgradableSmartContract.sol:upgraded_implementation_contract",
        "label": "usersBalance",
        "offset": 0,
        "slot": "1",
        "type": "t_mapping(t_address,t_uint256)"
      }
    ],
    "types": {
      "t_address": {
        "encoding": "inplace",
        "label": "address",
        "numberOfBytes": "20"
      },
      "t_mapping(t_address,t_uint256)": {
        "encoding": "mapping",
        "key": "t_address",
        "label": "mapping(address => uint256)",
        "numberOfBytes": "32",
        "value": "t_uint256"
      },
      "t_uint256": {
        "encoding": "inplace",
        "label": "uint256",
        "numberOfBytes": "32"
      }
    }
  }
}